:020000041000EA
:1000000000B5324B212058609868022188439860DF
:10001000D860186158612E4B002199600221596106
:100020000121F02299502B49196001219960352056
:1000300000F044F80222904214D00621196600F024
:1000400034F8196E01211966002018661A6600F04E
:100050002CF8196E196E196E052000F02FF8012189
:100060000842F9D1002199601B49196000215960AB
:100070001A491B48016001219960EB211966A021F2
:10008000196600F012F800219960164914480160C1
:100090000121996001BC002800D000471248134993
:1000A000086003C880F30888084703B5996A0420EC
:1000B0000142FBD001200142F8D103BD02B5186610
:1000C0001866FFF7F2FF186E186E02BD00000240BE
:1000D000000000180000070000035F00212200005C
:1000E000F4000018222000A00001001008ED00E03C
:1000F00000000000000000000000000074B24E7A12
:1001000000200420F7010010C3010010C5010010F9
:10011000C1010010C1010010C1010010C101001097
:10012000C1010010C1010010C1010010C701001081
:10013000C1010010C1010010C9010010CB01001065
:10014000CD010010CD010010CD010010CD01001037
:10015000CD010010CD010010CD010010CD01001027
:10016000CD010010CD010010CD010010CD01001017
:10017000CD010010CD010010CD010010CD01001007
:10018000CD010010CD010010CD010010CD010010F7
:10019000CD010010CD010010CD010010CD010010E7
:1001A000CD010010CD010010CD010010CD010010D7
:1001B000CD010010CD010010CD010010CD010010C7
:1001C00000BE00BE00BE00BE00BE00BE00F04BF888
:1001D000103800BEF2EB8871404E0010684E0010DF
:1001E0003402001090A31AE700202149086006C8D5
:1001F00081F3088810471F48006800282FD10DA4FC
:100200000ECC002902D000F012F8F9E71A491B4A77
:10021000002000E001C19142FCD1194988471949E9
:1002200088471949884700BEFDE701C901C29A42C3
:10023000FBD37047684E0010C00000203C12002025
:10024000E45F00100000042000000420E45F0010C0
:1002500000100420001004200000000070470B482C
:1002600002F0D4FD0047EFF30580C0B270470000F4
:1002700008ED00E0000000D040120020141700201C
:10028000A1170010F103001061170010575600006D
:1002900006005250ABB36053E04A001006005250C3
:1002A000861C0302F04A0010060052505422A29D00
:1002B000F44A001005005250DE65F468E45F001057
:1002C000F8B5C04606480749091A8B10C90FC91866
:1002D00010B5491003D0044B002B00D0984710BD37
:1002E0003C1200203C12002000000000054B10B51D
:1002F000002B03D00449054800E000BFFFF7E2FFF0
:1003000010BDC04600000000C0140020183E0010C0
:10031000002000217047000010B5002B02DB0260B6
:10032000436010BD024B034A03483F2101F01CFA11
:10033000183E0010343E00106C3E001010B5040052
:1003400000F01EFF02000B002000FFF7E5FF200079
:1003500010BDF0B583B0050016001F000192FA220F
:10036000920000230898002103F044F902000B00DA
:1003700092197B419F4202D804D1964202D90122B0
:100380005242D3172800FFF7C7FF280003B0F0BD83
:10039000F0B5C64600B586B080460C0015001E00BC
:1003A0000CAB1F7804A8FFF7C9FF049A059B0094C3
:1003B00004A8FFF7CEFF049A059B029701960095CB
:1003C000404600F005FE06B080BCB846F0BDF0B572
:1003D00083B004000D0016001F0000F0E3FD00973D
:1003E00033002A002100FFF7D3FF03B0F0BD000067
:1003F00010B503F0C1FA2049204803F0A9FB012100
:10040000102000F047F80521112000F043F80121E9
:10041000122000F03FF80121132000F03BF8D02318
:100420001B06802292025A625A611548154903F050
:100430003BFC0321082000F02DF80321092000F0E7
:1004400029F800220121082000F03CF800220121B7
:10045000092000F037F80C4BF822D201DA620B4980
:10046000FA2000230022C000FFF7B1FF084803F084
:1004700045FA002010BDC04640420F0000C00340B6
:1004800014120020801A0600800000D01103001012
:10049000AC3E001010B58300084A944663441A68C5
:1004A00040246240803414408022520113431C6077
:1004B000C000034B9C466044416010BD04C0014035
:1004C0000040014080000B4B9C46604400290DD049
:1004D0000823002A0CD004221343026853400C2244
:1004E0001A4080235B0103431A6070470023F0E742
:1004F0000022F1E704C00140EFF3108072B6034B15
:100500001B68002BFBD0BFF35F8F70472C0100D01E
:10051000BFF35F8F024B00221A6080F31088704790
:100520002C0100D0F8B506000C001500FFF7E4FF21
:10053000E308F718F15C07222240012393400B42A5
:1005400005D1DBB20B433B70FFF7E2FFF8BD2100A2
:10055000280001F0A1F90000034B1B68022018409D
:10056000431E9841C0B2704700C00640002307E018
:10057000054A9A189200BFF35F8F00211160013382
:100580001F2BF5D97047C04640000034054A10784B
:10059000431CDBB21370172B02D9130010221A7000
:1005A0007047C04668110020074B9B6810308000E0
:1005B0001950BFF35F8FBFF35F8F044B00211960A9
:1005C00082F310887047C04600ED00E0240100D09F
:1005D00010B50388DA0A1C2A05D15B055B150233C6
:1005E0005B00C01810BD034B034A0448A72101F06B
:1005F000BBF8C046BC3E001040400010D43E001086
:1006000010B5091A0B1F0A4A88180A4A904208D8DE
:10061000C90706D45B105B055B0D0748184380B221
:1006200010BD064B064A0748992101F09DF8C046C7
:10063000FC070000FE0F000000E0FFFF0C3F001071
:1006400034400010D43E001010B5091A04394A088D
:10065000090B08D14905490D064B0B430380064B96
:100660001343438010BD054B054A0648A12101F004
:100670007BF8C04600F0FFFF00F8FFFF3C3F001092
:1006800008400010D43E001001238340034A106844
:100690001840431E9841C0B27047C04600E100E0D8
:1006A000002904D0034B1860034B18607047034BBC
:1006B0001860FBE780E200E000E100E080E100E09C
:1006C00010B5012383401800FFF7EAFF10BD0000BA
:1006D000024B9B6810308000C058704700ED00E06E
:1006E00070B504000D00EFF3108672B60C4B1B685A
:1006F000002BFBD0BFF35F8F2000FFF7E9FF094B12
:10070000984201D0A84205D1320029002000FFF70D
:100710004BFF70BD044B054A05487C2101F024F8CD
:10072000240100D0CD0100104C3F001050400010BB
:10073000D43E0010F0B5CE46474680B583B00600E3
:100740000D00EFF3108872B6504B1B68002BFBD0E6
:10075000BFF35F8F4E4B9A6834001034A300D75814
:100760004C4B9F4207D0AF4200D18CE001974A4BDF
:10077000FB1A2F2B09D9424639003000FFF714FF2E
:1007800003B0C0BCB946B046F0BD3000FFF77CFFF7
:10079000814600213000FFF793FFBFF35F8FFFF723
:1007A00062FD002801D0844211D10123019C9C43A9
:1007B0000021A368AB4212D00622A256002A0DDB0C
:1007C00053009B189B00344A2100D418F1E7334BA7
:1007D000334A2C213348FF3100F0C6FF2100AB42E1
:1007E0004AD106256557002D2CDB2B4B6A00521988
:1007F00092009B189A68A260DA79E2719B795BB2E9
:10080000A371002B10DABD200002A080224B6A00E9
:10081000521992009B18244A117899711570494613
:100820003000FFF74DFFA6E76800401980001A4B23
:10083000C0180430FFF7CCFE0100231D1800FFF79D
:10084000DFFEE2E7002812D100290ED0FF238B71D2
:10085000164B8B8014490B78A3710F4A144BA41AC2
:10086000644163431B0D0B70D9E70A4FF2E711494E
:10087000201DFFF7E9FED2E70F4B094A6021094826
:10088000FF3100F071FF034F75E7C046240100D02F
:1008900000ED00E0CD0100106C110020843F00103D
:1008A00020400010D43E00101217002000BDFFFFB2
:1008B000AAAA0000A6110020A83F001070B50400ED
:1008C000012606432D4BF31A2F2B28D8FFF7CBFC1C
:1008D00000282BD0EFF3108C72B6294B1B68002B2D
:1008E000FBD0BFF35F8F254A264D2100891A49416D
:1008F0004D432D0D6DB2244B9B6880001B58B342B5
:100900001BD00021032932D81C4B4A0052189200F8
:100910009B189B795BB2AB421FD00131F2E71B4BB6
:100920001B4AC2211B48490000F01EFF1A4B184AFF
:1009300088211848FF3100F017FF134B9B68174AB6
:100940001A50174B1A78A2711D70BFF35F8F0C4BB2
:1009500000221A608CF3108870BD084B4A005018B2
:1009600080001818FF2686710E4A8280E9E70E4B38
:10097000074ACC210748490000F0F6FE6C11002020
:10098000240100D0AAAA000000ED00E0B03F001052
:10099000EC3F0010D43E0010D83F0010CD010010F5
:1009A0001217002000BDFFFFE43F00100022044B9F
:1009B00002E0044902C30132072AFAD97047C0464F
:1009C00000E400E080808080024B9C466144890006
:1009D000016070474000003410B500290AD0036858
:1009E0001B7B8B4206D38068054B9C466144090102
:1009F000401810BD034B044A04483B2100F0B4FEEC
:100A0000FFFFFF0F6C400010DC4200109040001010
:100A1000F8B504001700FFF7DFFF066845683900E6
:100A20002000FFF7D9FF026843680120AB4201D8DC
:100A300002D00020C0B2F8BDB242FBD8F9E70000F6
:100A400010B5002B02DB0260436010BD024B034A6D
:100A500003483F2100F088FE183E0010A842001015
:100A60006C3E001070B582B0060014001D00069A9E
:100A7000079B12196B419D4202D804D1944202D9BE
:100A800001225242D3176846FFF7DAFF009A019B12
:100A900032607360300002B070BD000010B50029F4
:100AA00008D0037B8B4205D300684B005B18033BE7
:100AB000C01810BD024B034A0348682100F054FEE1
:100AC000C040001084420010DC40001010B5437B91
:100AD0008B4201D1012010BDFFF7E0FF8378002B8E
:100AE00001D10020F7E70120F5E770B50400857B10
:100AF000002D01D1280070BD2900FFF7CFFF4378FA
:100B0000A373002B00D1E373002383704370037041
:100B1000F0E70000F8B506000C001500FFF7BEFF77
:100B20000700002C0DD0002D11D0AC4215D02900AB
:100B30003000FFF7B3FF84703B78002B13D13D707A
:100B4000F8BD0A4B0A4A0B486F2100F00DFE0A4B14
:100B5000074A0848702100F007FE084B044A054880
:100B6000712100F001FE43703D70E9E72041001063
:100B700060420010DC4000102C4100103841001091
:100B800070B506000D001400002914D0002A14D0FE
:100B9000436880689847002806D02200290030006A
:100BA000FFF7B8FF280007E02A0021003000FFF718
:100BB000B1FF200000E0100070BD0800FCE700005D
:100BC00070B504000D1E0CD0FFF768FF0023837082
:100BD00043700370617B2A002000FFF7D1FF607330
:100BE00070BD034B034A0448A52100F0BDFDC0467B
:100BF0005041001074420010DC40001070B5050038
:100C00000C1E08D0FFF762FF002804D1E97B002901
:100C100007D1EC7370BD054B054A0648F62100F07C
:100C2000A3FD2800FFF73AFF4470F2E7544100109B
:100C300050420010DC40001010B5002907D00368B6
:100C40001B7B8B4203D3C0680139401810BD034B96
:100C5000034A0448402100F087FDC0466C40001064
:100C60003C4200109040001070B505000C000800D8
:100C700000F07AFA200000F04BFB0849200000F059
:100C80008BFAFFF783FC064B9C466044800068604B
:100C90002C75044BA400E55070BDC046610D0010DA
:100CA00040000034D814002010B582B0040000F0D9
:100CB00067FA02000B006846FFF7C2FE009A019B2C
:100CC00022606360200002B010BD0000F0B583B068
:100CD000070001921D000AAB1C780BAB1E78002C9C
:100CE0000BD000682100FFF7F1FE002809D0194B56
:100CF000194A1A48652100F037FD0068FFF7F5FE34
:100D00000400002C02D1200003B0F0BD2100380007
:100D1000FFF762FE019B03604560089B8360099BAF
:100D2000C36038682100FFF74BFFA042EBD1387D4C
:100D3000019A2B0000F078FA051E01D0002E04D095
:100D40000C9B002BDFD01D70DDE73868210000F020
:100D500017FCF5E778410010904200109040001019
:100D6000F0B5DE4657464E464546E0B58FB00B908F
:100D70000021784B8200D458894682E02900200067
:100D8000FFF72AFE804602684368921BBB41002B96
:100D900009DD43461A685B680B9800F045FA0023AA
:100DA0009846002689E0002B01D1002AF1D10021CC
:100DB000584600F0DBFB0700A84215D143461A68ED
:100DC0005B680892099343469E68DB689846002E4C
:100DD00010D029002000FFF72FFF037899461B024F
:100DE0001F432761002068E05B4B5C4A5C488C2114
:100DF00000F0BAFC5B4B594A5948902100F0B4FC12
:100E00002369002B77D0BB4219D10698079900239C
:100E100042428B4100920193089A099B0CA8FFF76C
:100E200021FE0C9A0D9B0021049101310391029542
:100E30004146019100962000FFF748FF16E04A4B1B
:100E4000464A47489F2100F08FFC069A079B002BDB
:100E500001D1002A52D120682900FFF7CFFE2900D6
:100E60002000FFF7E9FE03780133037000232361BC
:100E70006268BFF35F8F13608AF310880120002837
:100E800061D00CA8FFF710FF0C9E0D9F00220023DD
:100E9000089209936268EFF3108A72B61368002B08
:100EA000FCD0BFF35F8F23689B465D7B002D00D095
:100EB00064E700239846002600206368BFF35F8F35
:100EC00000221A608AF31088002ED8D04B461F02E9
:100ED0002F4341463800B047069007916268EFF310
:100EE000108A72B61368002BFCD0BFF35F8F079B8C
:100EF000002B00DA84E7079B002BA6DD2369002B7B
:100F0000A9D0BB4219D10CA8FFF7CEFE0C9A0D9BBD
:100F100006980799009001910CA8FFF7A3FD0C9A81
:100F20000D9B0021049101310391029541460191ED
:100F300000962000FFF7CAFE98E70B4B074A0848C7
:100F4000A22100F011FC0FB0F0BCBB46B246A9468E
:100F5000A046F0BDD8140020A0410010C0420010EF
:100F600090400010B8410010C441001010B50A4B69
:100F70005B68002B04D009480A21FFF725FD10BD4E
:100F8000054C074A20682300102100F068FA03216D
:100F90002000FFF769FEEEE7B4110020F4160020F0
:100FA000110A001010B5064B5B68002B01D00448F5
:100FB00010BD044B044A05485C2100F0D5FBC04637
:100FC000B411002000420010244200109040001094
:100FD000F0B5DE4657464E464546E0B58DB00600B4
:100FE00090461F00169B9A46179B994618AB1B7894
:100FF0000793272302AA9446634400221A7021E033
:1010000001003000FFF718FE00783CE00698002B46
:101010005CD0079B002B59D04946D04704000D00F7
:1010200003000B4359D0002940DB08A8FFF73CFE22
:10103000089A099B0094019508A8FFF713FD089BE7
:101040009846099F7268EFF3108B72B61368594285
:101050004B41D9B20691002BF8D1BFF35F8F2733F4
:1010600002AA9446634404930023039302934B46DD
:1010700001935346009342463B003000FFF726FEA3
:101080000400051EBCD17368BFF35F8F0021196097
:101090008BF31088002D17D0272302AA94466344AF
:1010A0001B78002BB2D100022043B0E7002362423C
:1010B000AB410092019342463B0008A8FFF7D2FCE7
:1010C000089B9846099FBDE7012040420DB0F0BC47
:1010D000BB46B246A946A046F0BD0698F6E700001A
:1010E00070B5EFF305833F2018401038EFF3108CF4
:1010F00072B6184B1B68002BFBD0BFF35F8F012328
:1011000019008140144A5163144A12781400C440F3
:10111000234213D0104B5C6A114B8500EB589C4264
:1011200005D3104BEB580D4C8A43227007E00A4A56
:10113000031D9B0099589950002300E00023BFF342
:101140005F8F044A002111608CF31088002B00D0BF
:10115000984770BD280100D00040054013170020BB
:10116000F81600204013002010B50100024A034B7E
:101170001800FFF7D7F910BDE84200101117002042
:10118000044B5B6A034A906A1900536A9942F9D189
:101190007047C0460040054070B504000E00EFF3F4
:1011A000108572B61B4B1B68002BFBD0BFF35F8F03
:1011B000002E1CD02000FFF78BFA174B83420BD078
:1011C00019002000FFF78CFA01212000FFF778FAC0
:1011D0000123A340114A1360114BA400E650BFF352
:1011E0005F8F0C4B00221A6085F3108870BD0C4B8A
:1011F000A2000021D1500122A2400A490B7893435A
:101200000B7005492000FFF795FA00212000FFF739
:1012100057FAE4E7280100D0E110001038600540DB
:101220004013002013170020F0B5DE4600B584B04F
:101230000400150001921E000293FFF7A1FF039521
:101240008E4202D84ED185424CD9EFF3108B72B644
:10125000274B1B68002BFBD0BFF35F8F254A177805
:101260000125A540EBB23B431370234B5D63221D68
:1012700092000199D150214AA100029888501B6A1E
:101280002B4212D11C4B1B6C2B4208D00020BFF309
:101290005F8F174B00221A608BF3108823E0184BE6
:1012A000184A1948C12100F05FFAFFF769FF8E4222
:1012B00014D802D1039B834210D80E4B1B78BB423B
:1012C0000ED00D4B1D625D631F222240012393400F
:1012D0000E4A1360074B1F700120D8E70020D6E7A5
:1012E0000120D4E7012004B080BCBB46F0BDC0465D
:1012F000280100D01317002000400540F8160020F8
:101300000C4300106C4300103043001080E200E0FA
:10131000EFF3108C72B60B4B1B68002BFBD0BFF3A6
:101320005F8F01238340084A136208490A789A4371
:101330000A70BFF35F8F034B00221A608CF3108892
:101340007047C046280100D0004005401317002018
:1013500010B5002908D0037B8B4205D300684B00F1
:101360005B18033BC01810BD024B034A03486821B9
:1013700000F0FAF9C04000106C440010DC4000108E
:10138000F8B506000C001500FFF7E2FF0700002C7F
:101390000DD0002D11D0AC4215D029003000FFF740
:1013A000D7FF84703B78002B13D13D70F8BD0A4BFA
:1013B0000A4A0B486F2100F0D7F90A4B074A084840
:1013C000702100F0D1F9084B044A0548712100F062
:1013D000CBF943703D70E9E72041001058440010FC
:1013E000DC4000102C4100103841001070B50600A0
:1013F0000D001400002914D0002A14D0436880681E
:101400009847002806D0220029003000FFF7B8FFD7
:10141000280007E02A0021003000FFF7B1FF20007C
:1014200000E0100070BD0800FCE770B50500002367
:10143000437301338373037BC373012406E02100EC
:101440002800FFF785FF0134E4B24470297BA142F4
:10145000F5D82800FFF77CFF0023437070BD10B55E
:10146000017342608360FFF7E0FF10BDF0B5C64630
:1014700000B505000C1E03D1200080BCB846F0BDAD
:10148000FFF766FF4678002EF6D031002800FFF700
:101490005FFF477800239846437021002800FFF73C
:1014A00057FF43464370320021002800FFF79EFF9C
:1014B000040039002800FFF7D9FF020021002800AE
:1014C000FFF794FF0400D7E7F0B5C64600B5040067
:1014D0000D001700002920D0FFF73AFF4378002BBA
:1014E00021D18378002B24D101782000FFF7BEFFA3
:1014F00006008046002F03D0E17B00291FD1E57351
:101500004346002B20D129002000FFF721FF0023B4
:101510004370300080BCB846F0BD0F4B0F4A1048F6
:10152000382100F021F90F4B0C4A0D483A2100F008
:101530001BF90D4B094A0A483B2100F015F9200020
:10154000FFF706FF4570DAE731002000FFF700FFE4
:1015500000238370D7E7C04688430010444400103E
:1015600090430010C0430010E843001070B5040021
:101570000A00457B2900FFF7A7FF6073280070BDB4
:1015800070B506000C1E40D0437B8B4207D0FFF79E
:10159000DFFE05008178002906D1002036E0012118
:1015A000FFF7E4FF012031E03000FFF7D1FE0178C2
:1015B000A1420DD03000FFF7CBFE4178A1420AD006
:1015C0000029F7D1124B134A1348673100F0CCF8C9
:1015D0006B78037001E06B7843700023AB706B7025
:1015E000012221003000FFF76FFF0200717B814272
:1015F00005D03000FFF7FAFE7073012006E0074BBC
:10160000044A05486D2100F0AFF8002070BDC046C7
:10161000E43F00102C440010904300100C440010D4
:1016200010B50400FEF7B2FF01002000FFF7CCF96F
:10163000FF232371BFF35F8F10BD10B50400FEF7C9
:10164000A5FF01002000FFF7BFF9FF23237100234E
:101650006371BFF35F8F10BD70B504000D000620ED
:1016600000F034FAC000290001F024FCC60908D0BB
:101670000E4B9E4217D87F230340013335005E088E
:1016800000E001256562A6622C3480239B01234380
:1016900000221A60062000F019FA8000A9018919B9
:1016A00001F008FC70BD0026014DEBE7FEFF0000D5
:1016B000FFFF0000002909D00A22064B9C46604427
:1016C00043425841044B4000C252704780225200AE
:1016D000F3E7C0460080FCBF0817002070B5050086
:1016E0000C00062000F0F2F9002829D0164B9D428C
:1016F00027D08022D203154B1A60154B1A60154B68
:101700009B6811009943FAD100212800FFF7D2FF0E
:1017100021002800FFF7A0FF29002C31EB6A60228E
:1017200053400E321A4080235B010B431A600A4B70
:101730002B6380239B010B4310221A600323AB64AD
:1017400070BD80221204D6E70080034000E0004014
:1017500000F0004000C000400103000000BEFDE7B3
:1017600010B5FFF7FBFF000030B583B00D00190086
:10177000002A0BD0074B084C019200932B0002006B
:10178000200002F0EDF80120FFF7E8FF034B1A00FC
:10179000F1E7C04608450010184500101445001038
:1017A00070B52B4B2B4A1A602B4B2C4A1A602C4BD2
:1017B0009A682A4B9343FAD12A4C01E008CC984707
:1017C000294B9C42FAD300F001F9234B274A1A60B7
:1017D000234B9B68DB43DB01FAD1254B40229A6700
:1017E0005A671A67DA66234C09E0234B234A2448D8
:1017F0008321FFF7B9FF2000FFF712FF0834214BC8
:101800009C4209D22368002BF5D0012BEDD120009A
:10181000FFF713FF0834F2E71B4DA9681B4CC022E9
:10182000200001F059FFAC60FEF71DFD002800D03C
:1018300000BEFEF79BFEFFF7B9F8FFF797FB144CCD
:1018400001E008CC9847134B9C42FAD370BDC046C8
:1018500000E00040BFCDFBFE00F00040FE7F3C00FA
:1018600000C000402412002034120020FFFFFF01BE
:1018700000F001401C12002048450010B84500103F
:10188000684500102412002000ED00E00000002058
:10189000341200203C1200200FB400B583B0084879
:1018A00002F02CF8049B002B07D005A90191180029
:1018B00002F034F8034802F021F80120FFF74EFF50
:1018C000A4450010B4450010F8B5DE4657464E4614
:1018D0004546E0B506000F0015000A9A93424ED324
:1018E0001A0E92461B0298460A9A00234046514619
:1018F00001F022FB81467400A419A4002E4B9C46E3
:1019000064446368834200D26060331FDBB29B464D
:10191000012B3AD9C0239B012343802212011A6074
:10192000264BB200D158002905D0586901F0C2FAFF
:1019300001300138FDD16D0123685D40E0222A406D
:1019400080235B0123431A605A46012A28D9802349
:101950009B012343802212011A604B4663604A4672
:1019600000234046514601F0E7FA144BB600985167
:101970000120F0BCBB46B246A946A046F8BD104BBC
:10198000104A11482D21FFF7EFFE012FC2D1C023CD
:101990009B01234303221A60A368DB07FCD5CAE737
:1019A0002168794003220A401A60A3680125BD40DE
:1019B0001D42FAD0CBE7C046008000405014002002
:1019C000C845001018460010DC45001030B583B043
:1019D0000C2000F021F9FEF7BFFD00280DD00023F8
:1019E00004E02E4A99002E4888500133092BF8D97B
:1019F0002A4B2C4A5A6203B030BD2B4B00229A6707
:101A000000F012F9294B01221A60274B5B6C012B65
:101A1000FBD1274B03221A60234B9B6B012BFBD17D
:101A2000013300930433234A0121234800F054F882
:101A300005230093214A0121214800F04DF8214B54
:101A40000093002202210420FFF73EFF1E4D009567
:101A50002B00002201210520FFF736FF104C0094D7
:101A60002300002200210720FFF72EFF009423000F
:101A7000002200210820FFF727FF0A4B00932300D4
:101A8000002200210920FFF71FFF00952B000022F4
:101A900000210620FFF718FFADE7C04650140020D4
:101AA000006CDC021BB70000008000403CB000402E
:101AB00030B00040002F685900800240008C8647FB
:101AC00000C00240001BB70040597307014B800063
:101AD000C058704750140020F0B5C64600B5040049
:101AE0000F0090461D000C2001F0E4F906003D4A6D
:101AF00042443D4B9A4243D843011B1A9901C91AEB
:101B0000C90009188901404601F0D4F90200103AD1
:101B100098235B009A4239D86B1E062B3CD8069B53
:101B2000013B062B38D8069B9D423BD343461B09FD
:101B3000B3423DD32D04069B1E0335432368002B7F
:101B40003CDB2A4B9C424AD080235B01284A13602D
:101B5000284A1360284A926819009143FAD12760F5
:101B6000A060221DC0239B01134321221A6022681A
:101B7000002AFCDAE56008221A6080BCB846F0BD95
:101B80001E4B1F4A1F481121FFF7EEFD1E4B1C4A3A
:101B90001C481921FFF7E8FD1C4B194A19481C2164
:101BA000FFF7E2FD1A4B164A16482221FFF7DCFD2B
:101BB000184B134A13482521FFF7D6FD22683F230F
:101BC0001340BB42BDD1A3681B051B0D8342B8D196
:101BD000E368EE22D2021340AB42B2D1CDE78023BC
:101BE0009B01B3E780E84BD380F8A93200C00240E4
:101BF00000E0004000F0004000C000402846001017
:101C00005C47001088460010C0460010DC460010FB
:101C1000284700104047001080239B000343014ADF
:101C2000D362704700800540064BAA2212011A6059
:101C30002F22DA60044B054A1A60024B5B68002BC6
:101C4000FBDA7047004002400060024000B0FA003A
:101C5000704710B5002802D00B684968984710BD3E
:101C60000100002007E083001B185B00501C086087
:101C70001078C01830380A681378303BDBB2092B73
:101C8000F1D97047F0B5DE4657464E464546E0B5B9
:101C900083B093461F000C9B9A460D9C0E9B994661
:101CA0000F9B9B0703D0B8460F00060022E001926D
:101CB000A34688464E46B9460700B44207D2551C93
:101CC0004B4641462020B84701342A00F5E73D0045
:101CD0004F465C46019B9B46B1464646B846370098
:101CE0002E0007E0013C551C5346185D4346390061
:101CF000B0472A00002CF5D135003E0047460F9B27
:101D00009B0707D4100003B0F0BCBB46B246A946FF
:101D1000A046F0BDB0464E46B9462F005D46531B67
:101D2000B342EFD2541C4B4641462020B847220014
:101D3000F5E7F0B5CE46474680B585B0944698465F
:101D40000C9D0D9C0EAB1B789946109A119B129E10
:101D5000B7071CD4002B0CD0F7070AD54F46002F2D
:101D600002D10C37374204D0013B02E030272F5517
:101D70000134944201D21F2CF8D9F70707D59C42B1
:101D800005D21F2C03D830272F550134F5E7F7066D
:101D900012D5770505D4002C03D0944221D09C4263
:101DA0001FD00F9A102A32D00F9A022A37D01F2C38
:101DB0000AD830222A5501341F2C05D84A46002A59
:101DC00033D02D222A5501340396029301940095B5
:101DD00043466246FFF756FF05B0C0BCB946B04661
:101DE000F0BD621E012C10D00F9F102F0BD01400DD
:101DF0000F9A102AD8D1B206D6D51F2CD4D8582283
:101E00002A550134D3E7023CCBE71400C9E7B206F8
:101E1000EED41F2CECD878222A550134C7E71F2CAA
:101E2000D2D860322A550134C1E7720703D52B227C
:101E30002A550134C8E73207C6D520222A55013475
:101E4000C2E7F0B5DE4657464E464546E0B593B08C
:101E500081468A46089209931CAB10CB1B789B469F
:101E60001E9D219B9846002C03D1102342469A4385
:101E700090468023DB0046461E4042461A4212D05E
:101E8000002C22D000260EE03033D9B2771C0AABEA
:101E900099552900200001F00DF8AC4216D31F2FF0
:101EA00014D83E0004002900200001F003F8CBB252
:101EB000092BE9D94246920605D54121C918C9B274
:101EC0000A39C9B2E2E76121F8E7270043460693E1
:101ED000209B05931F9B049303955B4602930197F8
:101EE0000AAB0093099B089A51464846FFF721FF29
:101EF00013B0F0BCBB46B246A946A046F0BDF0B553
:101F0000DE4657464E464546E0B597B00A900B91DF
:101F10000C929A46209B9946219F22AA13789B46B1
:101F2000249B0993259C289B98464A463A4302D114
:101F30001032934398468022D200454615404346CE
:101F400013420AD04A463A4341D000252E00534658
:101F50000D934D46099B9A461BE02E0053460D9368
:101F60004D46099B9A4614E03033DAB2731C994609
:101F70000EAB9A55524623002800390000F0DCFFD2
:101F8000BC4226D819D04B461F2B1CD84E46050004
:101F90000F00524623002800390000F0CDFFD3B2D5
:101FA000092BE1D94246920605D54122D218D2B278
:101FB0000A3AD2B2DAE76122F8E7AA45E3D94E46F7
:101FC0000D9B9A4608E04E460D9B9A4604E000267B
:101FD00002E04E460D9B9A4643460693279B059387
:101FE000269B0493099B03935B46029301960EABD9
:101FF000009353460C9A0B990A98FFF79AFE17B074
:10200000F0BCBB46B246A946A046F0BDF0B5DE46E0
:1020100057464E464546E0B591B0804689460C92FB
:102020009A461A9C1B9D22002B002000290001F0DB
:1020300002FA002800D0ECE001225242D44B2000EA
:10204000290001F0F3F9002800D0E2E00122524219
:10205000D04B2000290001F0D3F9002800D0D8E0AF
:10206000002200232000290001F0CAF9002800D036
:10207000E4E0069407958023DB001E9A1A400D9237
:102080001E9A1A4201D106231C9306980799020052
:102090000B000892099303000A00024300D1D9E023
:1020A000080D4005400DBC4EB44660440A03120BB7
:1020B0001E00BA4B13431F0001F0D0F9B84AB94BC8
:1020C00001F05FF9B84AB94B01F03CF90890099169
:1020D0000022B74B3000390001F02FF9B54AB64B5A
:1020E00001F04FF902000B000898099901F02AF954
:1020F00001F0CCF9834601F0B1F906000F00AF4AB8
:10210000AF4B01F03EF90022AE4B01F01BF901F09C
:10211000BDF90890AC4AAD4B3000390001F031F9FF
:1021200006000F00089801F099F9A94AA94B01F09F
:1021300028F902000B003000390001F0FEF806001B
:102140000F0002000B0001F01CF90A900B91089B94
:10215000A14A9446634400210022089109921B057C
:1021600009930023089332003B003000390001F04E
:10217000E9F80E900F9132003B0000208021C90544
:1021800001F0DBF806000F000022944B0A980B992F
:1021900001F0DDF80022924B01F0D4F802000B00B0
:1021A0000A980B9901F0D3F800228E4B01F0CAF87F
:1021B00002000B000A980B9901F0C9F802000B000D
:1021C0003000390001F0BEF802000B000E980F99A4
:1021D00001F0BDF80022714B01F0B4F8089A099B98
:1021E00001F0CFF806000F0008960997069A079BA2
:1021F00001F01CF900282FD001235B429C46E344E8
:102200000022774B3000390001F0A1F808900991C5
:1022100022E01E9B04931D9B03931C9B029300943E
:10222000019553460C9A4946404600F0FFF811B01C
:10223000F0BCBB46B246A946A046F0BD0021002234
:1022400006910792069480231B069C46AC44634685
:10225000079310E700239B465B466333C62B20D8C9
:1022600004261E9B1B0528D5089A099B19001143BB
:102270000FD05D4A5D4B0698079901F0CFF8002812
:102280007AD000225A4B0698079901F0B9F8002835
:1022900072D01C9B5B4506DD5A469B1A013B1C9382
:1022A00003E00526DDE700231C938023DB001E9A54
:1022B0001A431E92002600239B461D9B9E4265D218
:1022C0009F1B02231E9A1A400A921E9A134202D0A2
:1022D000002E00D000275B46002B07D0089A099BF0
:1022E0000698079901F033F8069007910022002321
:1022F0002000290001F084F8002800D07CE03D4B4C
:102300001E9A1340049303971C9B0293069B079C01
:102310000093019453460C9A4946404600F086F8D3
:10232000002E00D183E71E9B9B0671D54525441CDA
:102330005346020049462800C0475A46D317D218D0
:102340005A4005230593013E0496002303930A3364
:1023500002935B46DB0F01930092534622004946ED
:102360004046FFF76EFD0A9B002B00D15FE702009D
:1023700047460C9E1D9D53E01C9B002B9DD00D9B42
:10238000002B9AD01C9B013B1C9396E7002798E7F3
:10239000FFFFEF7FFFFFEFFF01FCFFFF0000F03FBB
:1023A000FB799F501344D33FB3C8608B288AC63F44
:1023B0000000F83F61436F63A787D23F71A379099B
:1023C0004F930A400000E03F1655B5BBB16B024089
:1023D000EF39FAFE422EE63FFF03000000002C40DA
:1023E00000002440000018402D431CEBE2361A3F49
:1023F00080842E41FFF7FFFF069C079D22002900E5
:1024000080200006844661440B000692079376E71D
:1024100065258CE7541C534649462020B8472200C6
:10242000931BAB42F6D3100001E7C046F0B5DE4681
:1024300057464E464546E0B595B0069007919346FF
:102440009946209F1E9A1F9B1000190000F0F3FF71
:10245000002831D101225242BF4B1E981F9900F033
:10246000CFFF002837D101225242BC4B1E981F9942
:1024700000F0DCFF00283DD10022B94B1E981F99C7
:1024800000F0D4FF002850D10022B64B1E981F99AF
:1024900000F0B6FF002848D1002200231E981F99A3
:1024A00000F0AEFF002850D100239846229B5B0528
:1024B00000D4B6E0002458E0229B0393219B0293B2
:1024C00003230193A84B00934B465A46079906985D
:1024D000FFF7D8FB0EE1229B0393219B0293042379
:1024E0000193A24B00934B465A4607990698FFF773
:1024F000C9FBFFE00423229A1A4022990B4210D014
:102500009B4B002A0FD0042222990391219902911A
:10251000019200934B465A4607990698FFF7B2FB83
:10252000E8E0944BEDE70322EEE7229B0493219B26
:10253000039302971E9B1F9C009301944B465A469F
:1025400007990698FFF762FDD4E01E9A1F9B0020B2
:10255000002100F0F2FE1E901F9101239846A5E78E
:102560000CAB30221A55013F01341F2C01D8092F22
:10257000F6D81E981F9900F089FF050000F06EFF45
:1025800002000B001E981F9900F0D7FE7A4BFA004C
:102590009B181A685B680A920B9300F0F2FE089091
:1025A000099100F097FF060000F054FF02000B00B5
:1025B0000898099900F0C1FE0890099100226F4B1C
:1025C00000F034FF00282ED00136300000F042FF2A
:1025D00002000B000A980B9900F018FF002801D0A8
:1025E00001350026002F2CD1280000F037FF020013
:1025F0000B001E981F9900F0A0FE06000F0000229D
:102600005E4B00F0FDFE002846D100225B4B3000FF
:10261000390000F00BFF00283ED1EB073CD5013517
:102620003AE0062746E70022544B0898099900F043
:10263000E7FE0028D6D1002E01D0F307D2D501360F
:10264000D0E7AA461F2C11D8013F0A21300000F024
:1026500031FC651C30310CAB19550A21300000F0FB
:1026600029FC092E0ED906002C00EBE755461F2C3D
:102670000CD87B1E002F09D00CAA302111551F0049
:102680000134F4E72B0055461C00F0E71F2C03D85B
:102690000CAB2E221A5501341F2C10D80A21280009
:1026A00000F0E0FB661C30310CAB19550A21280004
:1026B00000F0D8FB051E01D03400EDE73400032301
:1026C000229A1340012B1CD01F2C06D84346002B06
:1026D00032D00CAB2D221A550134229B0393219B3F
:1026E000029301940CAB00934B465A460799069807
:1026F000FFF7C8FA15B0F0BCBB46B246A946A046E3
:10270000F0BD219B002B13D04346002B02D10C338C
:1027100013420FD0219B013B2193190003E00CAB26
:1027200030221A5501348C42CED21F2CF7D9CBE778
:102730002199F8E72199F6E7229B5B0704D50CABBA
:102740002B221A550134C8E7229B1B07C5D50CABB9
:1027500020221A550134C0E7FFFFEFFFFFFFEF7F94
:1027600065CDCD4165CDCDC17447001078470010CF
:102770006847001070470010204900100000E03F3B
:10278000F0B5DE4657464E464546E0B593B0824624
:10279000884693461193002900D106E3002556464A
:1027A000119B1878002800D102E3252809D06C1C61
:1027B0005B462A004146B047119B01331193250027
:1027C000EEE701331193002720E001231F4301327C
:1027D0001192012418E002231F43013211920124B7
:1027E00012E004231F430132119201240CE008235C
:1027F0001F4301321192012406E010231F430132CE
:102800001192012400E00024002C09D0119A1378C1
:10281000203BD9B21029F6D88B00C449CB589F462B
:10282000119B1A781300303BDBB2092B10D92A2AEE
:1028300013D00B94119B1A782E2A1ED0119A13785C
:10284000683BD9B2122959D88B00B949CB589F4659
:1028500011A8FFF705FA0B90ECE71C9B1A1D1C92C0
:102860001B68002B04DB0B93119B01331193E1E7F1
:10287000022217435B420B93F6E78022D2001743F4
:102880005A1C11925A781300303BDBB2092B0BD93A
:102890002A2AD3D11C9B1A1D1C921C68002C08DB11
:1028A000119B01331193C9E711A8FFF7D9F904006F
:1028B000C4E70024F4E780235B003B43511C1191E3
:1028C00051786C2901D01F0018E0C0239B001F43E2
:1028D0000232119212E080233B43511C1191517836
:1028E000682901D01F0009E0C0231F430232119262
:1028F00004E080235B001F4301321192119B187882
:10290000672816D8252826D30300253BDAB2422AA9
:1029100021D89300874AD3589F4680239B001F43AA
:1029200001321192EAE780235B001F4301321192CA
:10293000E4E778280FD869280DD30200693AD2B2AB
:10294000012393407C4A13420FD11A0600D507E2B7
:102950005B0500D594E16C1C5B462A004146B047FC
:10296000119B0133119325001AE778280AD06228B9
:102970003AD06F283BD058283CD010239F43063BC9
:102980009C4601E010239C46582836D0692803D085
:10299000642801D00C2297437A0501D50122974380
:1029A00069282DD064282BD0BA0500D5A2E0FA05FD
:1029B00000D5C3E07A0600D4D5E01C9A111D1C9105
:1029C0001168FF220A4005970B9B0493039463460A
:1029D00002930023019300925B462A004146300097
:1029E000FFF72FFA05002AE002239C46CCE70823D4
:1029F0009C46C9E710239C46C6E720221743C5E73B
:102A0000BA0520D4FA0550D47A0666D51C9A111D51
:102A10001C911168FF220A40D017111841400597F8
:102A20000B9B0493039463460293D20F019200918F
:102A30005B462A0041463000FFF703FA0500119B70
:102A400001331193ACE61C9A073207218A43110027
:102A500008311C91116853689946DB170C930D934C
:102A60000C9A0D9B100048400E904A4653400F931D
:102A70000E980F990C9A0D9B801A99410E900F9108
:102A800008970B9B079306946346049300230593D2
:102A90004B46DA0F0292009001915B462A004146B4
:102AA0003000FFF72CFA0500C9E71C9A111D1C9194
:102AB0001268D0171118414005970B9B049303949B
:102AC00063460293D20F019200915B462A00414671
:102AD0003000FFF7B6F90500B1E73A0605D51C9AB4
:102AE000111D1C910023D25E96E71C9A111D1C91AA
:102AF000126891E71C9A073207218A4311000831B6
:102B00001C9108970B9B079306946346049300233C
:102B10000593029353681268009201935B462A0062
:102B200041463000FFF7EBF9050088E780470010C9
:102B3000C447001010480010419000001C9A111D5D
:102B40001C9105970B9B0493039463460293002307
:102B50000193136800935B462A0041463000FFF75B
:102B600070F905006BE73A0606D51C9A111D1C91F9
:102B700012681204120C26E71C9A111D1C9112688F
:102B800021E7462819D01C9B0733072293431A00DC
:102B900008321C9204970B9A039202941A685B689D
:102BA000009201935B462A0041463000FFF73EFC4D
:102BB0000500119B01331193F2E520231F43E2E747
:102BC000672801D0472802D180231B011F434528D5
:102BD00001D0472801D120231F431C9B0733072224
:102BE00093431A0008321C9204970B9A03920294A2
:102BF0001A685B68009201935B462A0041463000E8
:102C0000FFF704FA0500119B01331193C8E5022375
:102C10001A003A4091463B421DD001241C9B1A1DCC
:102C20001C926F1C18785B462A004146B0474B4601
:102C3000002B14D1119B013311933D00B0E5571CBB
:102C40005B4641462020B04723003A005C1C9D4271
:102C5000F5D81500E2E701232A000B9DF6E73A00BC
:102C6000B1460B9E06E0571C5B4641462020C847F4
:102C70002C003A00651CA642F5D817004E46D9E74D
:102C80001C9B1A1D1C921B689A46002C25D1012200
:102C90005242534601E001330A001978002902D05C
:102CA000511E002AF7D152469B1A8022D2003900C9
:102CB00011408946174202D0A34200D923000222C4
:102CC0001100394010913A4209D02A002500574698
:102CD0009A4633004E46994621E02200D9E72A0061
:102CE0004546A04606E0541C5B4629002020B0471C
:102CF0003B0022005F1C0B999942F4D84446A84639
:102D00003B00250057469A4633004E46994606E05A
:102D10001D000137541C5B464146C84722003878E5
:102D2000002804D0002EF4D06B1E002DF0D1150029
:102D300053464E46109A002A03D1119B013311933A
:102D40002EE50B9F2A0006E0551C5B4641462020DD
:102D5000B04723002A005C1C9F42F5D81500ECE721
:102D600021233B431C9A111D1C91126805930823D3
:102D700004930394083302930023019300925B466B
:102D80002A0041463000FFF75CF80500119B013333
:102D9000119305E56C1C5B462A0041462520B0478F
:102DA000119B013311932500FAE40B4B9A46F5E48D
:102DB000B2465D450DD35B465A1E5B464146002038
:102DC000D047280013B0F0BCBB46B246A946A04687
:102DD000F0BD2A00F1E7C046511C001000B585B0D7
:102DE0000290039101210448009313004A4202A972
:102DF000FFF7C6FC05B000BD531C001001480421BC
:102E0000014B1847E01100202D2E001010B50100D5
:102E100018231B8814221088984710BD10B5010094
:102E200018231B8816221088984710BDF0B5C64697
:102E300000B507000E0000250123984600E001358B
:102E4000B5420AD2AC003C192068FFF7DFFF2060D2
:102E50000028F4D100239846F1E7404680BCB846EC
:102E6000F0BD0000124A936F9B0815D29066D166A0
:102E7000002905D0FFE7FFE7FFE7516F106F7047AC
:102E800004B580210906C2175140002800D0C8436C
:102E900000F0AAFF002104BDF0B5146E556E576F07
:102EA000166FFFF7E3FF1466556657671667F0BDA8
:102EB000000000D0114A936F9B0813D21066516630
:102EC000002905D0FFE7FFE7FFE7516F106F70475C
:102ED00004B5002801D00020C04300F085FF002188
:102EE00004BDC046F0B5146E556E576F166FFFF7F0
:102EF000E5FF1466556657671667F0BD000000D001
:102F000094464E4A926F9208624601D230E0C04623
:102F1000F0B54A4EB56F6D08FCD3346E756E776FA1
:102F2000366F00F025F89446444A14665566576794
:102F300016676246F0BDC0469446404A926F9208BA
:102F4000624601D258E0C046F0B53C4EB56F6D0800
:102F5000FCD3346E756E776F366F00F04DF8944683
:102F6000364A14665566576716676246F0BDC04616
:102F7000002B24DB11D000293EDA00B5C9434042C2
:102F800000D1013100F038F8C943404200D101318D
:102F9000DB43524200D1013300BD002AEBD10028AF
:102FA00001D1002905D00020C90FC90701D1C043B4
:102FB000410800B500F010FF0022002300BD00B55D
:102FC00000290ADBDB43524200D1013300F014F840
:102FD000C943404200D1013100BDC943404200D144
:102FE0000131DB43524200D1013300F005F8DB43ED
:102FF000524200D1013300BD002923D1002B18D14A
:10300000002A0CD0BC460D4F38667A66002100239A
:10301000FFE7FFE7FFE77A6F386F674670470028E2
:1030200001D00748010000B500F0D6FE00220023C1
:1030300000BD02000B00002000217047000000D0FE
:10304000FFFFFFFF002B00D0BFE0130C28D1002AA8
:10305000E7D080B4114F39667A66FFE7FFE730B4F6
:10306000040C7B6F396F1B0423433B667A66FFE7D2
:10307000FFE7FFE7C04684B27B6F3D6F1B0423432D
:103080003B667A66FFE7FFE7C04600232C042D0C61
:103090007A6F386F00196941B0BC7047000000D0EA
:1030A000F0B594460025140E01D112020835140F14
:1030B00001D112010435940F01D192000235D40FD1
:1030C00001D152000135D40B0134254F7C66254CCB
:1030D0003C660E0C93B2FFE7FFE7FFE73C6F6643E9
:1030E000360C7703BE467343DF0B5B04C01AB9414D
:1030F000130C7343DB18C91ACE086643360CB6446A
:1031000093B273431F0F1B01C01AB941130C7343D1
:103110001F0B1B05C01AB941860D8F023E43664343
:10312000360C092D24DB520A7243801A7703460AB3
:103130006643360C16235B1BDE40DF40BF19644636
:103140006643821B7046043506330100D940A8400F
:10315000C01900D30131A24206D20023F0BD000005
:10316000000000D0FFFFFFFF121B0130F3D3F1E797
:1031700009277F1BFE406446A2B27243801A00D228
:103180000139220C7243130C1204821A99410B006C
:103190007046043513370100F940A840801900D368
:1031A0000131002B02D1A2420AD2F0BD013000D37E
:1031B0000131121BFAD2013BF8D1A24200D2F0BD7C
:1031C000013000D30131121BF7E7F0B51C0C00D021
:1031D00080E00CB400251C0A04D11B02160E3343F8
:1031E000120208351C0B04D11B01160F33431201C8
:1031F00004359C0B04D19B00960F3343920002359B
:10320000DC0B02D192185B4101351C009718644118
:103210000134464F7C66464C3C660E0CFFE7FFE7E8
:10322000FFE7C0463C6F6643360C7703BE4697B255
:103230007743C01B00D20139C01B00D201399FB2B5
:103240007743C91BC91B170C77437E04FF0B801BF8
:10325000B941CE086643360C0C2D33DBB644120B55
:103260001F053A431B0B97B27743C01B00D20139AD
:103270009FB27743C91B170C77433E043F0C801B5A
:10328000B941860D8F023E43664329277F1BFE40CE
:103290000C3D7746AF40BF1930BCA2B2ABB272430F
:1032A0007343801A9941220C7243130C1204801A42
:1032B000994102000B000137001BA941F9D2781E89
:1032C0000021F0BD0C277F1BFE4077467F0BAF40EF
:1032D000FF19E0E700245D1C07D0144F7D663966B6
:1032E000FFE7FFE7FFE7FFE73C6F95B29EB265435C
:1032F0006643401BB141150C1E0C65436643360402
:103300002F0C3E432D04401BB141994204D20200D0
:103310000B0020000021F0BD01D19042F7D3801AAC
:10332000994101349942F2D3F6E70000000000D041
:10333000FFFFFFFF48404140484018B4134B5B6813
:10334000019308BD18B4114B1B68019308BD944646
:103350000F4A926F920805D2624618B40B4BDB6895
:10336000019308BD0A4AF0B5146E556E576F166F7B
:103370006246FFF7F2FF064A1466556657671667FE
:10338000F0BD18B4014B9B68019308BDF0140020F8
:10339000000000D0FFB550404240504059404B40E3
:1033A000594000E0FFB5154F4C00640D03D0BC42FE
:1033B00004D10C0314D80020090D09055C00640D2C
:1033C00003D0BC4204D11C030AD800221B0D1B05EC
:1033D00001264B4009D44B4003D58B4200D1824299
:1033E000FFBD9942FCD19042FFBD0B43DB18034364
:1033F0001343F5D0C9434918FFBD0000FF07000083
:1034000000B5FFF7CFFF804100BDC04600B5FFF714
:10341000C9FF01D9002000BD012000BD00B5FFF7A4
:10342000B9FF01D9002000BD012000BD00B5FFF7A4
:10343000B1FF804100BD012040054A00121804D8A8
:103440005A00121801D80020704701207047002050
:10345000704700000021002805D17047C11748407F
:10346000401AFAD0C90713B5064B1B6898470CBC25
:10347000441CA2401005120B0349091B09051943FE
:10348000114310BDF01500201F04000010B54C00C2
:10349000620D8023D218DB00D21A5B057E2A10DD74
:1034A0009E3A13DACC170903490819435242D14016
:1034B000640001341532202A05DAD0400843604305
:1034C00010BD002010BD0846604310BDC80FC018D5
:1034D000013810BD18B4024B5B6A019308BD0000AF
:1034E000F014002010B50148FEF7D6F9704900101D
:1034F00070B513231C78012C12D0012C12DC214B47
:10350000214A93642148FFF781FC214B186070BD6C
:1035100020491D4A9800815001331F2BF8D9ECE750
:103520000023FAE71C48FFF779FC05001B48FFF76A
:1035300075FC023803789B007F2B09DD124880223E
:10354000290000F0C9F8022C08D0022CDADCD6E7FA
:10355000134B144A14483221FEF706F9134B1A880C
:10356000B5231B029A4209D1114B1A88114B9A427A
:1035700004D1114B1A88114B9A42E6D00020FEF775
:103580008BF9C046C1350010F01400204C33000008
:10359000F0150020E53400105344000053460000AD
:1035A00088490010284A0010E849001054380000EB
:1035B000D8380000494600009C38000059460000F9
:1035C00007B56046002800D100BE01880A0A023013
:1035D000DF2AFAD1C9B2820804D3028840880004E5
:1035E000104300E00068024A5050039007BD0000FD
:1035F000F014002051434343C9188C46110C83B288
:103600004B4310B4040C614392B280B25043624306
:103610001C041B0C001910BC59411304120CC018D7
:10362000514161447047000010B50148FEF734F97C
:103630001445001070B513231E781848FFF7EEFBF1
:103640000500012E11D0012E09DDAB1E1B789B0059
:103650007F2B1DDD12488022290000F03DF8114823
:10366000FFF7D4FB104B186070BD0D4854222900A1
:1036700000F032F8002300E001331F2BE3D8084AA2
:103680009C00A258002AF7D10849054AA150F3E747
:10369000074B084A08484221FEF766F853460000E7
:1036A000F41500204C330000F015002029360010DE
:1036B0003C4A0010B04A0010704A00100148042132
:1036C000014B1847F01100202D2E0010014B1B68F4
:1036D00018470000F0110020014B5B6818470000FC
:1036E000F011002010B50300080011001B68984776
:1036F00010BD0000F8B507000D001600437C002B3C
:1037000002D0002400200CE0036811002800984734
:103710002DE03B7C10E03B68154802219847601C77
:103720000134B44214DA002CF3DD2B19013B1B7871
:103730000D3B5A425341DBB22A5D0A2AF0D1002BDD
:10374000EED1A042E7DA3B68211A28189847E2E751
:10375000B04203DA3B68311A28189847002E06DD7C
:10376000AD19013D2B780D3B5A4253413B74F8BDD6
:10377000304B001070B505000368002B16D00C4BC1
:103780001C6805E0290004C92000FFF7B3FFE468C6
:10379000002C09D02368002BF9D0064B1B68002BA6
:1037A000F0D0A342F3D1EDE700232B6070BDC046FB
:1037B000B8140020BC14002070B505000C000B6884
:1037C000802B05D023685A1C2260E418257170BD37
:1037D0000800FFF7CFFFF5E710B582B0D0231B0636
:1037E00000241C57074801A900F006FB002806D159
:1037F000019B9C4203D0034800F006FB012002B06D
:1038000010BDC0461C12002010B5024800F0DCFAC2
:1038100010BDC0461C120020F0B5CE46474680B50C
:1038200083B006000D0090461C00FFF7D5FF8146CF
:103830006B1C05D0002C08D0194F1A4B1C6807E0F0
:10384000300000F089FA0500F4E7174FF5E7E46867
:10385000002C17D02368002BF9D0144B1B68002BC9
:1038600001D0A342F3D12A0031002000B8474346DB
:10387000002BECD06B46D91D0A230B7001222000CF
:10388000B847E4E74B46002B07D16B1E9D41E8B2D9
:1038900003B0C0BCB946B046F0BDFFF7B5FFF4E7D2
:1038A000E5360010B8140020F5360010BC140020D6
:1038B000094A01E00C331A001368002B08D0834238
:1038C000F8D1002907D1C36813600023C36002E068
:1038D000002900D010607047B814002010B5064BC6
:1038E0001C6801E09847E468002C03D06368002B53
:1038F000F8D1F8E710BDC046B814002070B5050037
:1039000000F02AFA04000023012201002800FFF73A
:1039100083FFFFF7E3FF200070BD000070B5A2B089
:1039200004000E00FFF758FF05008422002101A8C3
:10393000FFF7CCFE09483300220001A9FFF74EFA39
:10394000040001A8FFF716FFFFF7C8FF002D02D102
:10395000200022B070BDFFF757FFF9E7B93700101C
:103960000FB400B583B004A901C90191FFF7D6FFD8
:1039700003B008BC04B0184710B500F08BF810BDB8
:1039800010B582B00C00144BC3185A425341134A6D
:103990005B009B5E8B4204D06B46DA1D14700021E5
:1039A00015E06B46DA1D0D23137000210029F3D1B9
:1039B00083699B06FCD41378036001310132F5E77B
:1039C00083699B06FCD4137803600131013200291E
:1039D000F6D002B010BDC0460080FCBF0817002022
:1039E00082B000226B46D91D06E08369DB06FCD459
:1039F00003680B7001320131002AF6D06B46D8798A
:103A000002B0704770B506000D00002405E0315D7E
:103A1000034B1868FFF7B4FF0134AC42F7DB70BD0D
:103A20000C170020F8B506000D00002405E0671C07
:103A30003419FFF7D5FF20703C00AC4204DA054A88
:103A400010688269D206F2D5002C01D02000F8BDA2
:103A5000033CFBE70C17002070B515001C000B4B56
:103A60001860FDF73BFE002D06DA002C09DA084845
:103A70000121FFF71DFF70BD02212800FCF70AFDA0
:103A8000F3E702212000FCF705FDF0E70C1700200A
:103A90000012002010B5064B1B78064B1B78E12165
:103AA0000123002249020448FFF7D6FF10BDC0469B
:103AB000644E0010604E001000400340F0B5D64642
:103AC000474680B583B0824688460620FDF7FEFF54
:103AD0000700022400E02C00FE2C1CD801970026D1
:103AE000A51C2802424600230021FFF783FD002980
:103AF00003D1B142EFD1B842EDD980256D00012D3F
:103B00000CD96E1E210071433800FFF7D3F94045F0
:103B100004D83500F3E780256D00F0E753461C61BB
:103B20006B1E1B02524612685340FF2212021340C2
:103B30008022520151460A43136029006143380034
:103B4000FFF7B8F903B0C0BCBA46B046F0BD0000FC
:103B500010B50400144B984222D080229202134BDD
:103B60001A60134B1A60134B9B6810009843FAD1EC
:103B70002000FFF7A3FF236807225340C8321A40F2
:103B800080235B0123431A602200243280239B019F
:103B90001A43032111600434234302221A6010BD2A
:103BA00080225202DBE7C04600C0034000E0004034
:103BB00000F0004000C00040F0B5D6464F464646F3
:103BC000C0B505000C000520FDF780FF0600600869
:103BD00080192100FFF76EF90700430099468144E0
:103BE00005214846FFF766F980463B1A9A46284B5E
:103BF0009C4224D8700080192649FFF75BF9441CC9
:103C00004346023BA34221D32B680022DA6629688F
:103C10000B680432534002321A4080235B010B438D
:103C20001A602B685246DA612B6842461A624B468C
:103C30004F2B11D950214846FFF73CF90DE0700099
:103C400080191549FFF736F9441CD9E7134B144A7C
:103C500014485F21FDF788FD01202A68A023D05079
:103C60002B681A007C32DB6F5C402404240C802318
:103C70005B0113431C602B680122DA6639003000B7
:103C8000FFF718F9E0BCBA46B146A846F0BDC046F9
:103C90003F420F008096980040787D01744B0010E1
:103CA000CC4B0010944B001010B5114B98421DD016
:103CB0001022104B1A60104B1A60104B9B681400B6
:103CC0009C43231EF9D104710268D46602686624FD
:103CD000FF3414600268D363026893630268883318
:103CE000633CFF3CD450FFF767FF10BD0822E0E7BC
:103CF0001412002000E0004000F0004000C000402E
:103D000010B5024800F004F810BDC046E8140020C9
:103D100070B588B0040004AD002604960922002185
:103D200005A8FFF7D3FC00960922002101A8FFF7A0
:103D3000CDFC4B232B700D226946280000F03CF887
:103D4000002304E05A1D69468A5CE2540133072BC4
:103D5000F8DD08B070BD000010B583070AD003007D
:103D6000032102E001330B4205D01A78002AF9D171
:103D7000181A10BD030019680C4A0D4C8A188A43A2
:103D800022420FD15968094A04338A188A432242D1
:103D900008D15968054A04338A188A432242F1D06F
:103DA00000E001331A78002AFBD1E1E7FFFEFEFEB6
:103DB00080808080F8B5C04601B40248844601BCCA
:103DC000604700BF0102002001B40248844601BCE4
:103DD000604700BF5101002001B40248844601BC85
:103DE000604700BFD902002001B40248844601BCEC
:103DF000604700BFD902002001B40248844601BCDC
:103E0000604700BF0901002001B40248844601BC9C
:083E1000604700BFC100002063
:103E180075735F73696E63655F626F6F74203C3D95
:103E280020494E5436345F4D41580000766F69641E
:103E3800207570646174655F75735F73696E63651F
:103E48005F626F6F74286162736F6C7574655F74FD
:103E5800696D655F742A2C2075696E7436345F74D9
:103E680029000000433A5C5250323034305C7069AB
:103E7800636F2D73646B5C7372635C636F6D6D6FDE
:103E88006E5C7069636F5F626173655C696E636CB9
:103E98007564652F7069636F2F74797065732E6808
:103EA8000000000048656C6C6F2C20776F726C64A2
:103EB8002100000030783163203D3D20282A696EBA
:103EC8007374293E3E31317500000000433A5C525C
:103ED80050323034305C7069636F2D73646B5C737F
:103EE80072635C7270325F636F6D6D6F6E5C686178
:103EF8007264776172655F6972715C6972712E6351
:103F08000000000064656C7461203E3D202D323055
:103F180034382026262064656C7461203C3D2032AC
:103F280030343620262620212864656C74612026CA
:103F380020312900212864656C7461203E3E2031BF
:103F48003175290063757272656E74203D3D205F7E
:103F58005F756E68616E646C65645F757365725FCA
:103F6800697271207C7C2063757272656E74203D65
:103F78003D2068616E646C6572000000216578639D
:103F8800657074696F6E207C7C20657863657074D9
:103F9800696F6E203D3D206E756D202B20313600F7
:103FA80066616C736500000069735F7368617265B0
:103FB800645F6972715F7261775F68616E646C6576
:103FC8007228736C6F745F68616E646C6572290027
:103FD800657863657074696F6E000000666F756E52
:103FE800640000006972715F6164645F7461696C88
:103FF8005F746F5F667265655F6C6973740000005B
:10400800696E736572745F6272616E63685F616E18
:10401800645F6C696E6B00006972715F72656D6FC9
:1040280076655F68616E646C657200006D616B65D2
:104038005F6272616E6368007265736F6C76655F4C
:104048006272616E636800006972715F7365745FA4
:104058006578636C75736976655F68616E646C65B5
:10406800720000006964202626206964203C3D20F7
:10407800706F6F6C2D3E686561702D3E6D61785F65
:104088006E6F646573000000433A5C5250323034FE
:10409800305C7069636F2D73646B5C7372635C630F
:1040A8006F6D6D6F6E5C7069636F5F74696D655C71
:1040B80074696D652E630000696420262620696492
:1040C800203C3D20686561702D3E6D61785F6E6FA4
:1040D80064657300433A5C5250323034305C706926
:1040E800636F2D73646B5C7372635C636F6D6D6F6C
:1040F8006E5C7069636F5F7574696C5C696E636C24
:104108007564652F7069636F2F7574696C2F70689B
:104118006561702E68000000706172656E745F6979
:10412800640000006368696C645F696400000000F3
:10413800706172656E745F696420213D20636869EF
:104148006C645F696400000069640000696420268B
:1041580026202170685F636F6E7461696E735F6E8D
:104168006F646528686561702C2069642900000007
:104178002170685F636F6E7461696E735F6E6F64E0
:104188006528706F6F6C2D3E686561702C207265B4
:104198007573655F6964290072656D6F7665645F24
:1041A8006964203D3D206E6578745F696400000095
:1041B80063616C6C6261636B00000000706F6F6C10
:1041C8002D3E616C61726D5F696E5F70726F6772B0
:1041D800657373203D3D206D616B655F7075626C22
:1041E80069635F69642869645F686967682C206E21
:1041F8006578745F6964290064656661756C745FCD
:10420800616C61726D5F706F6F6C5F696E69746904
:10421800616C697A6564282900000000616C61722C
:104228006D5F706F6F6C5F6765745F6465666175FD
:104238006C7400006765745F656E7472795F696499
:104248005F6869676800000070685F667265655F2F
:104258006E6F64650000000070685F6164645F638E
:1042680068696C645F6E6F646500000070685F6900
:104278006E736572745F6E6F6465000070685F6767
:1042880065745F6E6F6465006164645F616C617220
:104298006D5F756E6465725F6C6F636B0000000024
:1042A8007570646174655F75735F73696E63655F6C
:1042B800626F6F7400000000616C61726D5F706FF7
:1042C8006F6C5F616C61726D5F63616C6C6261637E
:1042D8006B0000006765745F656E7472790000009A
:1042E800486172647761726520616C61726D202526
:1042F8006420616C726561647920636C61696D65C5
:104308006400000074696D65725F68772D3E696EA0
:1043180074732026203175203C3C20616C61726DDD
:104328005F6E756D00000000433A5C5250323034C5
:10433800305C7069636F2D73646B5C7372635C725D
:1043480070325F636F6D6D6F6E5C68617264776108
:1043580072655F74696D65725C74696D65722E63F0
:104368000000000068617264776172655F616C616A
:10437800726D5F7365745F746172676574000000C5
:10438800726F6F745F696400433A5C525032303424
:10439800305C7069636F2D73646B5C7372635C630C
:1043A8006F6D6D6F6E5C7069636F5F7574696C5C5F
:1043B80070686561702E63002170685F6765745F5F
:1043C8006E6F646528686561702C20726F6F745F0A
:1043D8006964292D3E7369626C696E67000000008C
:1043E8002170685F6765745F6E6F646528686561D2
:1043F800702C20726F6F745F6964292D3E70617232
:10440800656E74006E65775F7375625F747265655B
:1044180020213D20686561702D3E726F6F745F6961
:104428006400000070685F72656D6F76655F616E2D
:10443800645F667265655F6E6F64650070685F7261
:10444800656D6F76655F616E795F686561640000B0
:1044580070685F6164645F6368696C645F6E6F64F1
:104468006500000070685F6765745F6E6F64650063
:10447800746F74616C000000433A5C5250323034FF
:10448800305C7069636F2D73646B5C7372635C631B
:104498006F6D6D6F6E5C7069636F5F73796E635C6F
:1044A8006D757465782E63006D74782D3E636F7238
:1044B800652E7370696E5F6C6F636B006C6F636BF6
:1044C8005F69735F6F776E65725F69645F76616C51
:1044D8006964286D74782D3E6F776E6572290000C7
:1044E8006D74782D3E656E7465725F636F756E745A
:1044F800000000006D757465785F65786974000068
:104508002C2066756E6374696F6E3A200000000097
:10451800617373657274696F6E2022257322206639
:1045280061696C65643A2066696C6520222573228E
:104538002C206C696E65202564257325730A00009C
:1045480031203D3D202875696E747074725F74293E
:104558006C2D3E7370696E5F6C6F636B00000000BA
:10456800433A5C5250323034305C7069636F2D735B
:10457800646B5C7372635C7270325F636F6D6D6FD6
:104588006E5C7069636F5F72756E74696D655C727D
:10459800756E74696D652E63000000000A2A2A2A68
:1045A8002050414E4943202A2A2A0A000A000000C6
:1045B80072756E74696D655F696E697400000000DC
:1045C8007372635F66726571203E3D206672657125
:1045D80000000000433A5C5250323034305C70695D
:1045E800636F2D73646B5C7372635C7270325F63AC
:1045F8006F6D6D6F6E5C68617264776172655F6321
:104608006C6F636B735C636C6F636B732E6300001A
:10461800636C6F636B5F636F6E6669677572650065
:1046280076636F5F66726571203E3D20285049436E
:104638004F5F504C4C5F56434F5F4D494E5F46525B
:1046480045515F4D485A202A204D485A2920262690
:104658002076636F5F66726571203C3D2028504963
:10466800434F5F504C4C5F56434F5F4D41585F4638
:104678005245515F4D485A202A204D485A2900007A
:10468800433A5C5250323034305C7069636F2D733A
:10469800646B5C7372635C7270325F636F6D6D6FB5
:1046A8006E5C68617264776172655F706C6C5C7077
:1046B8006C6C2E63000000006662646976203E3DE3
:1046C800203136202626206662646976203C3D200B
:1046D8003332300028706F73745F64697631203E1E
:1046E8003D203120262620706F73745F646976310F
:1046F800203C3D2037292026262028706F73745FC0
:1047080064697632203E3D203120262620706F7362
:10471800745F64697632203C3D2037290000000030
:10472800706F73745F64697632203C3D20706F73DC
:10473800745F6469763100007265665F6D687A201F
:104748003C3D202876636F5F66726571202F2031AB
:1047580036290000706C6C5F696E69740000000097
:10476800666E692B00000000666E69006E616E005F
:10477800666E692D00000000EE2700100628001064
:1047880006280010FA270010062800100628001036
:104798000628001006280010062800100628001019
:1047A80006280010E227001006280010D62700105F
:1047B8000628001006280010CA270010D628001066
:1047C800FC2800101A290010FC280010B628001038
:1047D800FC280010FC280010FC280010FC28001001
:1047E800FC280010FC280010FC280010F2280010FB
:1047F800FC280010FC280010FC280010FC280010E1
:10480800FC28001026290010942D001056290010AD
:104818005629001056290010562900105629001054
:104828005629001056290010562900105629001044
:104838005629001056290010562900105629001034
:104848005629001056290010562900105629001024
:104858005629001056290010562900105629001014
:104868005629001056290010562900105629001004
:1048780056290010562900105629001056290010F4
:104888005629001056290010C02B0010822B00104A
:10489800C02B001056290010562900105629001068
:1048A80056290010562900105629001056290010C4
:1048B80056290010562900105629001056290010B4
:1048C80056290010562900105629001056290010A4
:1048D800562900106A290010562900105629001080
:1048E8005629001056290010562900105629001084
:1048F8005629001056290010562900106A29001060
:104908000E2C00106A290010C02B0010822B0010FA
:10491800C02B001000000000000000000000F03F65
:104928000000000000002440000000000000594082
:104938000000000000408F40000000000088C340D5
:1049480000000000006AF8400000000080842E414A
:1049580000000000D01263410000000084D7974196
:104968000000000065CDCD416D697373696E6720E5
:10497800646F75626C652066756E6374696F6E002E
:104988002A282875696E74385F74202A29282828EF
:10499800766F6964202A29726F6D5F646174615F44
:1049A8006C6F6F6B757028726F6D5F7461626C6588
:1049B8005F636F6465282753272C202746272929FA
:1049C800292D322929202A2034203E3D2053465FB4
:1049D8005441424C455F56325F53495A45000000E6
:1049E800433A5C5250323034305C7069636F2D73D7
:1049F800646B5C7372635C7270325F636F6D6D6F52
:104A08006E5C7069636F5F646F75626C655C646F20
:104A180075626C655F696E69745F726F6D2E630095
:104A28005F5F61656162695F646F75626C655F692C
:104A38006E6974002A282875696E74385F74202A94
:104A48002928726F6D5F7461626C652D3229292087
:104A58002A2034203E3D2053465F5441424C455F56
:104A680056325F53495A4500433A5C52503230340B
:104A7800305C7069636F2D73646B5C7372635C7216
:104A880070325F636F6D6D6F6E5C7069636F5F66C8
:104A98006C6F61745C666C6F61745F696E69745F7A
:104AA800726F6D2E630000005F5F61656162695F10
:104AB800666C6F61745F696E697400004465627545
:104AC80067000000626F6F74325F7732357130387B
:104AD80030000000302E3100312E342E300000001E
:104AE8007069636F5F770000667700004665622033
:104AF800323320323032330006005250D3F0754240
:104B0800C44A001006005250E182887FCC4A001047
:104B1800060052503ABCA911DC4A00100600525057
:104B2800BBFF3CB6E84A00100D0A0000554152543C
:104B380020737464696E0000554152542073746484
:104B48006F7574005541525420737464696E202F38
:104B5800207374646F7574000600525053B4F4A146
:104B68004C4B001008005250920000007364615FC3
:104B780074785F686F6C645F636F756E74203C3D1A
:104B8800206C636E74202D2032000000433A5C5282
:104B980050323034305C7069636F2D73646B5C73B2
:104BA80072635C7270325F636F6D6D6F6E5C6861AB
:104BB8007264776172655F6932635C6932632E6320
:104BC800000000006932635F7365745F6261756439
:104BD8007261746500000000666C6173685F6F66DF
:104BE8006673202B20636F756E74203C3D205049FE
:104BF800434F5F464C4153485F53495A455F4259BA
:104C080054455300433A5C5250323034305C70693A
:104C1800636F2D73646B5C7372635C7270325F6375
:104C28006F6D6D6F6E5C68617264776172655F66E7
:104C38006C6173685C666C6173682E6300000000C9
:104C4800636F6E6E6563745F696E7465726E616CB6
:104C58005F666C61736820262620666C6173685FE6
:104C6800657869745F78697020262620666C6173A0
:104C7800685F72616E67655F65726173652026267D
:104C880020666C6173685F666C7573685F636163E7
:104C980068650000636F6E6E6563745F696E746546
:104CA800726E616C5F666C61736820262620666C84
:104CB8006173685F657869745F786970202626205B
:104CC800666C6173685F72616E67655F70726F674B
:104CD80072616D20262620666C6173685F666C754C
:104CE80073685F636163686500000000636F6E6EE0
:104CF8006563745F696E7465726E616C5F666C6122
:104D0800736820262620666C6173685F657869740D
:104D18005F78697020262620666C6173685F666C10
:104D28007573685F6361636865000000666C617332
:0C4D3800685F646F5F636D640000000042
:104D440080050181B0B0AB100000000072B2018197
:104D5400B0AB308000000000800A0181B0B0ABF03D
:104D6400000000003F020181B0AB30800000000071
:0C4D740080040181B0B0ABF00000000032
:104D800090B5FF7F0100000090B5FF7FB0B0A88014
:104D9000C2B5FF7FB0AB0280F8B5FF7FA8FFFF7FF1
:104DA0002EB6FF7FB0AB028048B6FF7FB0B0A880C0
:104DB000E4B6FF7F01000000D8B5FF0FB0A9028064
:104DC00060B6FF0FB0B0A880B4B6FF0F01000000BE
:104DD000BCB6FF0FB0B0AA80ECB6FF0F74FFFF7F28
:104DE000ACB7FF0FAA3F3780F4B7FF0FB0B0A88071
:104DF00000B8FF0FB0B0AA803CB8FF0FB0B0A880D9
:104E000050B8FF0F01000000E0B8FF0FAA0DB280FC
:104E100044B9FF0F48FFFF7F18BCFF0FB0B0A88058
:104E200034BCFF0F44FFFF7FD8BEFF0F010000001E
:104E300048C0FF0F40FFFF7F0CC3FF0F01000000C1
:104E4000004B00100C4B0010184B0010900200108B
:104E5000244B00109C020010A8020010B4020010A5
:084E60006C4B0010604B0010C8
:104E680010B5D0231B0600241C570268EFF31081ED
:104E780072B61368002BFCD0BFF35F8F0423C356B0
:104E8800002B08DB0368BFF35F8F00221A6081F3F1
:104E9800108820BFE9E704710368BFF35F8F002221
:104EA8001A6081F3108810BD03000068EFF3108CBE
:104EB80072B60268002AFCD0BFF35F8F04229A56AC
:104EC800002A0BDB002910D00A6000201B68BFF302
:104ED8005F8F00221A608CF310887047D022120668
:104EE800127852B21A710120F0E70020EEE70000B4
:104EF80010B50268EFF3108172B61368002BFCD06E
:104F0800BFF35F8F0423C356002B0ADBFF23037113
:104F18000368BFF35F8F00221A6081F3108840BFD7
:104F280010BD034B034A0448A92100F0E5FFC04621
:104F3800C4440010FC44001080440010094B1B7846
:104F4800002B08D00CE09A00802149055118086808
:104F58000549505001333F2BF5DD024B01221A70F1
:104F68007047C046101700205013002010B5014BA1
:104F7800984710BD5113002000280AD003231B02B4
:104F8800054A12685340C02292001340034A136036
:104F980070470223F3E7C0460C8001400C900140A3
:104FA800F0B5D6464F464646C0B507000E00150078
:104FB80018239A461B881422904610882849984737
:104FC800814653461B884246108826499847040064
:104FD80053461B88424610882349984780464B46CB
:104FE800002B0CD0002C0AD0002808D0FFF7A6FF11
:104FF800C847A0470020FFF7BFFF2A000FE01B4B60
:105008001B4A1C48802100F077FF002B07D0002A9C
:1050180005D0C0235B051B6E3370013A01362B00A7
:10502800134312D0C0235B059C6A08232340A407BE
:10503800EBD5002DE9D0511B0D29E6D83878C021D1
:1050480049050866013D0137DFE70120FFF794FFB6
:10505800C047FFF78BFFE0BCBA46B146A846F0BD93
:10506800494600004558000046430000F44C001033
:10507800344D00100C4C00107047C04603685A00AD
:1050880004D5802212061343C01870475B005B08E2
:10509800FAE7C046F8B54E464546DE4657468046CE
:1050A8009146E0B500292AD04B1E9B469A46002718
:1050B8005346FB18DC0FE41843466410E5005E19FC
:1050C8003000FFF7DBFFA34510D0484509D8083565
:1050D80028004044FFF7D2FF0138484508D2671C32
:1050E800E6E7A7420BD0631E9A46E1E74845F8D8A1
:1050F8003000F0BCBB46B246A946A046F8BD002623
:10510800F6E7C0460300012805D0022807D0002092
:10511800002B02D070470348FCE70348FAE703482E
:10512800F8E7C0463D0A0020310A0020490A00205D
:1051380030B5204B050083B08C1E002B23D02000F7
:1051480001A900E000BF00282BD001992200FFF739
:10515800A1FF041E25D0FFF791FF6368A864012B07
:1051680024D0201D002B1FDBFFF788FF00232B65B1
:105178000368E864002B0CDBFFF780FF03000020C6
:105188002B6103B030BD0C4B0C481B1AD910019190
:10519800DCE71801000FFFF7B5FF03000020002B24
:1051A800EED100230920EBE70123E0E700230520E7
:1051B800E6E7C04600000000404E0010804D001099
:1051C800036810B50400DA0705D49B070AD54830F0
:1051D80000F080FC23685A070AD51A070FD5DB06AA
:1051E80015D510BD483000F071FC23685A07F4D477
:1051F8002000D03000F072FC23681A07EFD420009A
:105208005130FF3000F06EFC2368DB06E9D4200043
:10521800D130FF3000F06AFCE3E7C04603000068C5
:10522800002800D0C01870477047C04670B5040009
:105238000D002000296CFFF77BFF002811D12B6C93
:105248002A00636121000120236998470828F0D0CB
:10525800072806D10020296CFFF7E6FF281D00F07B
:105268001FFCFFDEF0B54746CE4680B52E4C83695D
:10527800A544C768040015000431402203A89846D5
:1052880000F032FE0023029323E0F022129B52002A
:10529800636102A97AA800F027FE21003000236983
:1052A8007AAA9847889B060013934346019302AB5A
:1052B80000932200230029000120B847002829D1A3
:1052C800F0227AA9520002A800F00EFE0025082E4E
:1052D8001ED120001299FFF72BFF09358146EEB247
:1052E8000028D2D0109B102113934346019302ABA0
:1052F80000932200230001203143B847002809D138
:105308004846F3239B009D44C0BCB946B046F0BD57
:10531800072E02D009239946F2E728001299FFF7D1
:1053280083FF03A800F0BCFB34FCFFFF70B5CB6B18
:10533800F8B00B6405000E004022043101A800F00B
:10534800D3FD01235B42009306E06A4629002B69DE
:1053580098470400082808D128001099FFF7E8FEAC
:105368000028F2D0092078B070BD6846FFF728FF02
:10537800062CF7D131002800FFF758FF10B58261DD
:10538800DA6BC1601A6419000022FFF76BFF10BDC9
:10539800436970B50B64C36804000D00002B13D17A
:1053A8000A000369010002209847072805D0082849
:1053B8000ED129002000FFF739FF0020296CFFF7E4
:1053C80033FF281D00F06CFB0122FFF74BFFFFDEC7
:1053D800FFDEC046C36810B5002B05D0CB6B00229A
:1053E8000B64FFF73FFF10BDFFF7A0FFFBE7C046C8
:1053F800012913D00AD8002B12D10F2A10D89200F5
:1054080080184368009A0020136006E001200339E1
:10541800C9B2884280414042013070470120FCE710
:105428000220FAE700B585B003AB0A00009300211B
:105438000023FFF7DDFF039805B000BD012913D055
:105448000AD8002B12D10F2A10D8009B92001B6893
:1054580080184360002006E001200339C9B2884261
:1054680080414042013070470120FCE70220FAE702
:1054780000B585B003AB039200930A000023002116
:10548800FFF7DCFF05B000BD70B5194CD36BA54420
:10549800136405000C0017A8111D402200F024FD1C
:1054A80001235B42169313E00C2116A86A46FFF706
:1054B800DFFF210016A8A84700280FD16946049BE2
:1054C80016AA083098470600052808D0092805D0EC
:1054D80068462699FFF72CFE0028E5D0092616A86D
:1054E800FFF76EFE30008E239B009D4470BDC046C2
:1054F800C8FDFFFFF0B54E464546DE465746E0B5C7
:105508000D000321EC6C160004CC8BB094460140CE
:105518000894002B00D17FE0170C06AA5773624647
:1055280012040792FF223A409200A418022206AF02
:105538003A73022900D1AC6B2A6DD2070FD530001F
:1055480007A900F069FB002801D1082000E0092024
:105558000BB0F0BCBB46B246A946A046F0BD2268D7
:105568009346002AEBD008220240039200220492BC
:10557800023201279046AA46B14602910193019B47
:10558800022B46D0238865889B46043453462E0058
:105598009B6C0F214846BE43F618FFF743FF0023D4
:1055A800864205D85B46BB439B1998429B415B42A8
:1055B80042466D0015405A463A401543012D31D0F8
:1055C800022D4ED0002DC2D1029A002A02D0002B03
:1055D80000D0BDE0043423689B46002BCFD14E4653
:1055E80007A9300000F018FB0028B0D1049B002B5D
:1055F800ABD00F213000FFF715FF0E21020030005D
:10560800FFF736FF30000F21704AFFF731FF072000
:105618009EE765680834B9E71202079206AA537331
:10562800032284E7029A002A4ED1002B17D025685E
:105638006368ED0F9A1C00D189E7524658320692EA
:10564800013300D1B0E0201DFFF7E8FD2A0001007A
:1056580006AB504600E000BF002800D08DE00834BB
:10566800B9E725686A0052089346029A002A0FD1C2
:10567800002B05D0039B002B43D05B46002B40D06A
:10568800002D00DA04345B4601339B00E418A2E7DE
:1056980053460D2148461E6AFFF7C4FE8642EFD1E5
:1056A80053469B6A9C42EBD153465A469A625246ED
:1056B8000023D36204331363231D53632368002B31
:1056C8007CDB01230493DEE753460D2148461D6A1F
:1056D800FFF7A8FE8542C2D153469B6A9C42BED1C1
:1056E80055464E462000FFF7C9FC0F210200300046
:1056F800FFF7BEFE30002A000021FFF7B9FE0720A1
:1057080026E75823534405935B46251DA3460026E8
:105718001C000EE0059B28000693FFF77FFD002282
:10572800010006AB504600E000BF013604350028F2
:1057380035D1A642EED14E460D213000FFF772FE5C
:1057480055465C46069B286206206B62AC62FFE603
:105758002000FFF793FC554604340700AC6328008B
:105768004E4600E000BF002800D1F0E630003A00C5
:105778000F21FFF77DFE0720EAE64E468146069B8D
:105788000D21300055469A46FFF74CFE4B462862DD
:10579800022B11D15346EB622B002C33D4E72300A4
:1057A8005C469B4625686BE74E460D213000554602
:1057B8009246FFF737FE28625346C5E75846013040
:1057C800800055464E4620188DE7C0460000000070
:1057D80010B50023FFF78EFE10BDC04610B501239B
:1057E800FFF788FE10BDC04610B50223FFF782FE02
:1057F80010BDC046F0B5CE46474680B50600140039
:105808001D00C3B0032900D1B3E000D979E0002915
:1058180000D198E0012900D0D5E0130C1404984673
:10582800240C012D00D1C8E0052D00D0CBE0A14605
:10583800C1444B46202B00D9C5E043460F2B00D965
:10584800C3E04B46102B00D8FEE00368194208D08D
:1058580001229343013213430360483000F03CF9BE
:10586800336804221A4205D0300093433360D030A5
:1058780000F036F920AF380000F02EF9684600F045
:105888002FF943461021C91A10235B424B449C460A
:1058980043464900DC00B06B3C1901390022013154
:1058A80089008358A35004328A42FAD1634680188B
:1058B800002B00D1DFE044466F465B00102C00D27D
:1058C8001024103CE4003C19013B002201339B00EA
:1058D8008158A15004329A42FAD18018012D00D182
:1058E800ABE04346B0630F2B02D820A800F0F2F8D3
:1058F800380000F0F3F8002043B0C0BCB946B04609
:10590800F0BD04295FD1002B5DD1102A5BD810228D
:1059180003681A4200D082E020AF380000F0E8F8AF
:10592800012539000023B26B28009840044201D0B9
:1059380001CA086001330431042BF5D13800B26381
:1059480000F0D4F8D7E7002B3DD10023012710043D
:10595800B26B000C311D3D009D40284201D020CA89
:105968000D6001330431102BF5D1A404C3D4B26304
:10597800C1E7032B27D11404150C240C2B19102B69
:1059880021D8082203681A4250D120AF380000F00D
:10599800ABF8ED00B36B002C0AD0ED1AE400043D1F
:1059A8001C197D191900096804335951A342F9D10A
:1059B8003800B36300F096F89DE71B19102B02D846
:1059C8004346102B12D1022096E7002C93D003688F
:1059D8005A0758D46F46380000F082F8B06B63005D
:1059E8004446103CE4003C19013B6EE703682B4237
:1059F80006D00322300093433360483000F068F843
:105A080020AF380000F064F8B06B002C16D0434685
:105A18006100DC0000233C199C4601393EE79343B2
:105A28000360D130FF3000F063F875E793430360FB
:105A38005130FF3000F058F8A7E720AF0430B063CA
:105A4800380000F043F856E70368194208D00122ED
:105A580030009343013213433360483000F03CF880
:105A680020AF380000F038F8B06B002CCFD13800E8
:105A780000F030F83FE7012DE0D04346B0630F2B2C
:105A880000D938E7F3E704226F4693430360D03028
:105A980000F026F8380000F023F8B06B9FE7C04606
:105AA8000100343138C9043B9C461D60A6460100FC
:105AB80020313CC990469946A246AB4601000831C0
:105AC800FCC941680068E54600BDC0467047C0464D
